:1000000009C08BC18AC189C188C187C191C185C11D
:10001000A7C183C111241FBECFE9CDBF10E0A0E668
:10002000B0E0E0EDF3E002C005900D92AA36B10712
:10003000D9F720E0AAE6B0E001C01D92AE37B207C2
:10004000E1F700E401BD789401D0C0C1CF93DF9304
:10005000CDB7DD27C450CDBFE199FECF1EBAE09ADF
:100060008DB38F5F80936300843010F01092630033
:1000700080916300F894E199FECF1CBA1EBA8DBB43
:10008000E29AE19A8FEF87BB18BA81E083BF8FB500
:1000900083608FBD8AE086BF89B7846089BF8DEE9B
:1000A00080936A008BE780936D008BE790E09093DC
:1000B0006C0080936B00789401E010E082E1782E70
:1000C0009DEEB92EAA24AA9420E1922E35E0E32ECB
:1000D000F12C40EF842E8091630081112CC090E0C0
:1000E00080E0209178002817190679F048B3FC01C8
:1000F000EC59FF4F2081B80102C0660F771F2A9587
:10010000E2F79B012095242328BB019685309105B9
:1001100041F790917700E0917800F0E0EC59FF4FC3
:10012000808120916100309162009217130611F0D6
:100130000CF0A7C0F3D080916300813041F5D12C41
:10014000C12CB0917600EB2FF0E0FA83E983EC1537
:10015000FD0529F0F601EC59FF4F8081DFD02FEF2C
:10016000C21AD20A35E0C316D10459F7909177002C
:1001700049815A814C595F4FDA018C91209161007D
:1001800030916200921713060CF487C0C7D080919B
:100190006300823091F490917700E0917600F0E076
:1001A000EC59FF4F808120916100309162009217DD
:1001B000130611F00CF07DC0B1D080916300833044
:1001C00061F420917700809161009091620028177E
:1001D000190611F00CF079C0B8BA80916300843030
:1001E00061F420917700809161009091620028175E
:1001F000190611F00CF06BC0A8BAABD089839A83B2
:10020000AB83BC838093720090937300A0937400BF
:10021000B093750080916E0090916F00A091700076
:10022000B091710029813A814B815C81281B390B87
:100230004A0B5B0BDA01C9010297A105B1050CF469
:100240004ACF209160008091610090916200820FFE
:10025000911D27FD9A9590936200809361008F3FD6
:100260009105BCF18092600049815A816B817C814B
:1002700040936E0050936F00609370007093710014
:100280002ACF28B3D80102C0AA0FBB1F8A95E2F774
:10029000CD018095822388BB4ECF28B3F80102C0E0
:1002A000EE0FFF1F8A95E2F7CF018095822388BB6E
:1002B0006ECF28B3A80102C0440F551F8A95E2F7FC
:1002C000CA018095822388BB78CF78BA86CF18BAC6
:1002D00094CF1816190644F290926000209176008F
:1002E0002F5F2093760080916D0060916B0070917C
:1002F0006C0090E046D060916A0070E053D090931B
:100300006C0080936B00B7014DD08093780025304E
:1003100008F4AACF10927600A7CF72CE98B321E04E
:1003200030E001C0220F8A95EAF7922B98BB08951E
:100330001F920F920FB60F9211248F938091770026
:100340008F5F809377008F910F900FBE0F901F905B
:100350001895E9E7F89481919191A191B19118953F
:10036000EF93EFB7EF930F93E9E700810D5E02C0C3
:1003700000810F4F0193E0F70F91EF91EFBFEF91E5
:1003800018950024552704C0080E591F880F991F7F
:10039000009729F076956795B8F37105B9F7802D28
:1003A000952F0895AA1BBB1B51E107C0AA1FBB1FB5
:1003B000A617B70710F0A61BB70B881F991F5A95F1
:1003C000A9F780959095BC01CD010895F894FFCFD1
:0A03D0001001000100010203040007
:00000001FF
