:1000000009C0A5C0A4C0A3C0A2C0A1C0A0C09FC079
:100010009EC09DC011241FBECFE9CDBF10E0A0E659
:10002000B0E0EEEDF2E002C005900D92AA36B10705
:10003000D9F720E0AAE6B0E001C01D92AC36B207C5
:10004000E1F701D04AC18FE387BBE199FECF1EBA29
:10005000E09A8DB38F5F883004F580936B008091B8
:100060006B00F894E199FECF1CBA1EBA8DBBE29AE0
:10007000E19A7894C39884EF91E07CD0C0E08091BD
:100080006B00C817E4F4C39A88EC90E073D0C3986F
:1000900088EC90E06FD0CF5FF2CF10926B00DFCF93
:1000A00080916A0061E070E090E0C2D080916A00C7
:1000B0008F5F80936A00853010F010926A00E091A3
:1000C0006B00E83098F70E2E000CFF0BE759FF4F3E
:1000D0000994E6CF06C00AC010C014C01EC027C0D5
:1000E0002EC080916A0064E070E0DECF80916A00EB
:1000F00061E070E090E06ED0D9CF80916A0064E05A
:1001000070E0F8CF68EE73E081E090E03DD068EEFB
:1001100073E090E080E038D0C9CF64E670E081E021
:1001200090E032D064E670E090E080E02DD062E3B1
:1001300070E081E090E028D062E370E0EACF64E113
:1001400070E081E090E020D064E170E0E2CF58CF31
:1001500021E030E0A90102C0440F551F8A95E2F763
:10016000CA0198B3662319F0892B88BB089580953E
:100170008923FBCF019708F40895EFE5F9E0319763
:10018000F1F700C00000F6CFCF92DF92EF92FF921E
:100190000F931F93CF93DF936C018B01C0E6D0E0E8
:1001A0008AE6E82E80E0F82E8881229661E091E0D0
:1001B000C916D10409F060E0CBDFEC16FD06A1F70B
:1001C000C801DF91CF911F910F91FF90EF90DF90C9
:1001D000CF90D0CFCF92DF92EF92FF920F931F93E9
:1001E000CF93DF93EC017B0100E610E09AE6C92E85
:1001F00090E0D92EF80180810E5F1F4F60E0A8DFEC
:10020000C016D106B9F7CC0FDD1FC05ADF4F61E031
:1002100088819EDF88EC90E0B70138D0CB01DF9178
:10022000CF911F910F91FF90EF90DF90CF90A2CFD1
:10023000CF92DF92EF92FF920F931F93CF93DF93B2
:10024000EC017B0100E610E09AE6C92E90E0D92E81
:10025000F80180810E5F1F4F61E07ADFC016D10682
:10026000B9F7CC0FDD1FC05ADF4F60E0888170DF27
:1002700088EC90E0B7010AD0CB01DF91CF911F91BC
:100280000F91FF90EF90DF90CF9074CF97FB072EE8
:1002900016F4009406D077FD08D00BD007FC05D0EB
:1002A0003EF4909581959F4F0895709561957F4F8D
:1002B0000895AA1BBB1B51E107C0AA1FBB1FA617AD
:1002C000B70710F0A61BB70B881F991F5A95A9F7FF
:0E02D00080959095BC01CD010895F894FFCF64
:0A02DE00000001000200030004000C
:00000001FF
